:020000040800F2
:1000000000000120F9020008BD220008C1220008FA
:10001000C5220008C9220008CD2200080000000007
:10002000000000000000000000000000D1220008D5
:10003000D522000800000000D9220008DD220008B7
:10004000E9140008E9140008E9140008E91400089C
:10005000E9140008E9140008E9140008E91400088C
:10006000E9140008E9140008E9140008E91400087C
:10007000E9140008E9140008E9140008E91400086C
:10008000E9140008E9140008E9140008E91400085C
:10009000E9140008E9140008E9140008E91400084C
:1000A000E9140008E9140008E9140008E91400083C
:1000B000E9140008E9140008E9140008E91400082C
:1000C000E9140008E9140008E9140008E91400081C
:1000D000E9140008E5180008E9140008E91400080C
:1000E000E9140008E9140008E91400080000000001
:1000F0000000000000000000000000000000000000
:100100000000000000000000E9140008E9140008E5
:10011000E9140008E9140008E9140008E9140008CB
:10012000E9140008E9140008E9140008E9140008BB
:10013000E91400080000000000000000E9140008B5
:10014000E9140008E9140008E9140008E91400089B
:10015000000000000000000000000000000000009F
:10016000000000000000000000000000000000008F
:10017000000000000000000000000000000000007F
:10018000000000000000000000000000000000006F
:10019000000000000000000000000000000000005F
:1001A000000000000000000000000000000000004F
:1001B000000000000000000000000000000000003F
:1001C000000000000000000000000000000000002F
:1001D000000000000000000000000000000000001F
:1001E0005FF8E0F100B583B001F0E6F8304B314A3A
:1001F0001360314A1360314B314A03E011681960D2
:10020000043304322F498B42F8D32A4B1A682E4B01
:100210009A4204D1284B1A682C4B9A4200D0FEE730
:10022000234B2B4A13602B4A13602B4B02E0002216
:100230001A600433294A9342F9D3254B1B6813B93A
:10024000244B1B6803B1FEE701F0C2F8694601A820
:1002500001F042F8224C234B1C1BA410002504E0A3
:100260001F4B53F8253098470135AC42F8DC1E4C43
:100270001E4B1C1BA410002504E01B4B53F825301B
:1002800098470135AC42F8DC0099019801F0F2FE84
:100290000546174C174B1C1BA41004E0013C144BE3
:1002A00053F824309847002CF8DC284600F0E6FF8D
:1002B000BABADECA00000020400100200000002081
:1002C0000C2F0008440100207856341232547698DE
:1002D00044010020901B002044010020941B0020BA
:1002E000500400085004000850040008500400089E
:1002F000500400085004000808B5FFF773FF00BF62
:1003000000BEFEE71EF0040F0CBFEFF30880EFF312
:1003100009807146414A10472DE9F04182B00446F8
:100320008846134B5E6B9F6B9D6A1B6B13F0020F2D
:100330000DD00F4BDB6A002B09DA4BF6AB6101F0F5
:10034000C3F820B14FF00042094BDA620CE00948D3
:1003500000F0D4FFCDF800803B46324629462046C7
:1003600001F03AF800BEFEE702B0BDE8F08100BF40
:1003700000ED00E0482E000800BEFEE71EF0040F6E
:100380000CBFEFF30880EFF309807146244A104751
:100390002DE9F04182B004468846084B5E6B9F6BA6
:1003A0009D6A074800F0AAFFCDF800803B46324620
:1003B0002946204601F010F800BEFEE700ED00E0FF
:1003C000582E00081EF0040F0CBFEFF30880EFF367
:1003D00009807146134A10472DE9F04182B0044666
:1003E0008846084B5E6B9F6B9D6A074800F086FF4E
:1003F000CDF800803B4632462946204600F0ECFF0F
:1004000000BEFEE700ED00E0642E000800BEFEE73F
:1004100000BEFEE700BEFEE77047000019030008BB
:0804200091030008D903000854
:100428000C2F000800000020440100200C2F0008B9
:10043800000000000000000044010020941B002080
:080448000000000000000000AC
:1004500010B5044600F00CFF064BA3FB00308009EA
:1004600000F068F8002221464FF0FF3000F020F83D
:10047000002010BDD34D6210024A1368013313608F
:10048000704700BF48010020014B1868704700BF4B
:100490004801002010B582B00190FFF7F5FF044637
:1004A000FFF7F2FF001B019B9842F9D302B010BD89
:1004B00070B504460E4615460F2A03D9D2211A48B4
:1004C00000F012FF0F2E03D9D321174800F00CFFC4
:1004D000164BDA68C2F30222C2F10701042928BFD1
:1004E0000421131D062B01D9033A00E00022012349
:1004F00003FA01F101393140914003FA02F2013A65
:100500002A400A43002C06DA04F00F041201D2B28A
:10051000074B1A5570BD1201D2B204F1604404F5C4
:10052000614484F8002370BD082C000800ED00E051
:1005300014ED00E00138B0F1807F0AD2064B58601C
:10054000F021064A82F823100020986007221A60E2
:1005500070470120704700BF10E000E000ED00E0B0
:1005600010B50446042805D020B14FF4DF710848C7
:1005700000F0BAFE042C05D1064A136843F00403C8
:10058000136010BD034A136823F00403136010BD09
:10059000082C000810E000E0704700BF08B5FFF726
:1005A000FBFF08BD30B583B0044620B94FF4877116
:1005B000BA4800F099FE23683BB113F00F0F04D145
:1005C00040F20F11B54800F08FFE236813F0010FC1
:1005D00000F0A480A36853B1B3F5803F07D0B3F512
:1005E000A02F04D040F21511AC4800F07DFEAC4BBA
:1005F0005B6803F00C03042B0AD0A94B5B6803F083
:100600000C03082B1CD1A64B5B6813F4803F17D05A
:100610004FF4003393FAA3F3A14B1A684FF400335D
:1006200093FAA3F3B3FA83F303F01F0322FA03F35D
:1006300013F0010F72D0A368002B6FD100F017BC2C
:10064000A368B3F5803F05D1954A136843F480331E
:10065000136026E063B903F1804303F504331A689D
:1006600022F480321A601A6822F480221A6018E09C
:10067000B3F5A02F0CD103F18043A3F53C331A68E6
:1006800042F480221A601A6842F480321A6008E04C
:10069000834B1A6822F480321A601A6822F480228E
:1006A0001A60A368EBB1FFF7EFFE054605E0FFF720
:1006B000EBFE401B642800F2DC834FF4003393FA16
:1006C000A3F3774B1A684FF4003393FAA3F3B3FA0A
:1006D00083F303F01F0322FA03F313F0010FE6D0B4
:1006E0001CE0FFF7D1FE054605E0FFF7CDFE401BFD
:1006F000642800F2C0834FF4003393FAA3F3684BED
:100700001A684FF4003393FAA3F3B3FA83F303F0B8
:100710001F0322FA03F313F0010FE6D1236813F04D
:10072000020F00F0A0806369012B04D940F2491147
:100730005A4800F0D9FDA3691F2B04D94FF4A571C5
:10074000564800F0D1FD564B5B6813F00C0F0AD0F1
:10075000534B5B6803F00C03082B27D1504B5B68AD
:1007600013F4803F22D1022393FAA3F34C4B1A686F
:10077000022393FAA3F3B3FA83F303F01F0322FADD
:1007800003F313F0010F03D06369012B40F075836D
:100790004348036823F0F801A369F82292FAA2F211
:1007A000B2FA82F293400B4303605CE063699BB34F
:1007B000012292FAA2F3B3FA83F39B0003F184437C
:1007C00003F584031A60FFF75FFE054605E0FFF7B7
:1007D0005BFE401B022800F25283022393FAA3F32C
:1007E0002F4B1A68022393FAA3F3B3FA83F303F0AF
:1007F0001F0322FA03F313F0010FE8D0284803681F
:1008000023F0F801A369F82292FAA2F2B2FA82F276
:1008100093400B43036026E0012393FAA3F3B3FA5A
:1008200083F39B0003F1844303F5840300221A60E1
:10083000FFF72AFE054605E0FFF726FE401B0228CB
:1008400000F21F83022393FAA3F3154B1A680223C5
:1008500093FAA3F3B3FA83F303F01F0322FA03F32B
:1008600013F0010FE8D1236813F0080F5DD0E3699E
:10087000012B04D94FF4C571084800F035FDE36938
:1008800073B3012292FAA2F3B3FA83F3054941F854
:100890002320FFF7F9FD05460CE000BF542C0008AB
:1008A0000010024080044242FFF7EEFD401B022888
:1008B00000F2E982022393FAA3F293FAA3F2B54A73
:1008C000526A93FAA3F3B3FA83F303F01F0322FAF5
:1008D00003F313F0010FE7D00120FFF7DBFD24E065
:1008E000012393FAA3F3B3FA83F30021AA4A42F84F
:1008F0002310FFF7C9FD054605E0FFF7C5FD401BC6
:10090000022800F2C282022393FAA3F293FAA3F21E
:10091000A04A526A93FAA3F3B3FA83F303F01F03D6
:1009200022FA03F313F0010FE7D1236813F0040F49
:1009300000F0AB802369012B06D9052B04D040F2CF
:10094000B711964800F0D0FC924BDA6942F0805221
:10095000DA61DB6903F080530193019B904A1368CD
:1009600043F480731360FFF78FFD054605E0FFF742
:100970008BFD401B642800F28A82894B1B6813F4AC
:10098000807FF4D02369012B05D1824A136A43F09A
:100990000103136222E063B903F1804303F50433DA
:1009A0001A6A22F001021A621A6A22F004021A621A
:1009B00014E0052B09D1774B1A6A42F004021A623F
:1009C0001A6A42F001021A6208E0724B1A6A22F0B7
:1009D00001021A621A6A22F004021A62236953B3EE
:1009E000FFF752FD054607E0FFF74EFD401B41F2C1
:1009F0008833984200F24D82022393FAA3F293FACD
:100A0000A3F3B3FA83F35B0943F00203DBB2022BD7
:100A100002D1604B1A6A01E05E4B5A6A022393FAD4
:100A2000A3F3B3FA83F303F01F0322FA03F313F0E3
:100A3000010FD9D029E0FFF727FD054607E0FFF7B2
:100A400023FD401B41F28833984200F224820223A6
:100A500093FAA3F293FAA3F3B3FA83F35B0943F097
:100A60000203DBB2022B02D14A4B1A6A01E0494B66
:100A70005A6A022393FAA3F3B3FA83F303F01F0332
:100A800022FA03F313F0010FD9D1E36A022B04D940
:100A90004FF4F771414800F027FCE36A002B00F0A7
:100AA00001813C4A526812F4803F0BD0394A5268A7
:100AB00002F00C02082A05D1364AD26A12F4803FAD
:100AC00040F0EB81022B40F0BE80236BB3F5C06F8A
:100AD0001CD0B3F5E06F19D0B3F5006F16D0B3F5A5
:100AE000106F13D0B3F5206F10D0B3F5306F0DD069
:100AF000B3F5406F0AD0B3F5606F07D0B3F5706FF0
:100B000004D04FF4FF71254800F0EEFB636B13B384
:100B1000102B20D0202B1ED0302B1CD0402B1AD0D5
:100B2000502B18D0602B16D0702B14D0802B12D0E5
:100B3000902B10D0A02B0ED0B02B0CD0C02B0AD0F5
:100B4000D02B08D0E02B06D0F02B04D040F2FF11C0
:100B5000124800F0C9FB0F4B1B6813F0805F07D0F1
:100B60000C4BDB6A03F0F003626B934240F0978119
:100B70004FF0806393FAA3F3B3FA83F39B0003F17E
:100B8000844303F5840300221A60FFF77DFC0546C9
:100B90000EE000BF0010024080044242542C0008C6
:100BA00000700040FFF770FC401B642800F2798160
:100BB0004FF0006393FAA3F3C24B1A684FF000633F
:100BC00093FAA3F3B3FA83F303F01F0322FA03F3B8
:100BD00013F0010FE6D1BB4BDA6A22F0F001626B31
:100BE0000A43DA62DA6A22F47061226B0A43DA623B
:100BF0004FF0806393FAA3F3B3FA83F39B0003F1FE
:100C0000844303F5840301221A60FFF73DFC054687
:100C100005E0FFF739FC401B642800F244814FF0E7
:100C2000006393FAA3F3A74B1A684FF0006393FA9B
:100C3000A3F3B3FA83F303F01F0322FA03F313F0D1
:100C4000010FE6D02EE09F4AD36A23F48033D362AB
:100C50004FF0806393FAA3F3B3FA83F39B0003F19D
:100C6000844303F5840300221A60FFF70DFC054658
:100C700005E0FFF709FC401B642800F216814FF0E5
:100C8000006393FAA3F38F4B1A684FF0006393FA53
:100C9000A3F3B3FA83F303F01F0322FA03F313F071
:100CA000010FE6D1236A022B04D940F2472186487E
:100CB00000F01AFB236A002B00F0F980814A526889
:100CC00002F00C02082A00F0F480022B40F0A4800D
:100CD000636A3BB1B3F5803F04D04FF414717A4896
:100CE00000F002FBA36AB3F5002F16D0B3F5402F36
:100CF00013D0B3F5801F10D0B3F5A01F0DD0B3F5FE
:100D0000C01F0AD0B3F5E01F07D0B3F5501F04D0C1
:100D100040F251216C4800F0E7FA4FF0807393FAEB
:100D2000A3F3B3FA83F39B0003F1844303F5840335
:100D300000221A60FFF7A8FB054605E0FFF7A4FBB9
:100D4000401B022800F2B7804FF0007393FAA3F320
:100D50005C4B1A684FF0007393FAA3F3B3FA83F372
:100D600003F01F0322FA03F313F0010FE6D1636AC5
:100D7000B3F5803F1CD1E3680F2B04D940F2672103
:100D8000514800F0B1FA63683BB1B3F5803F04D03D
:100D900040F269214C4800F0A7FA4A4BD96A6268D0
:100DA0000A43DA62DA6A22F00F01E2680A43DA6281
:100DB0004448436823F47411636AA26A13430B43E3
:100DC00043604FF0807393FAA3F3B3FA83F39B006D
:100DD00003F1844303F5840301221A60FFF754FBF7
:100DE000044604E0FFF750FB001B022865D84FF0D3
:100DF000007393FAA3F3334B1A684FF0007393FA1E
:100E0000A3F3B3FA83F303F01F0322FA03F313F0FF
:100E1000010FE7D0002053E04FF0807393FAA3F363
:100E2000B3FA83F39B0003F1844303F584030022A8
:100E30001A60FFF729FB044604E0FFF725FB001BBF
:100E400002283CD84FF0007393FAA3F31D4B1A68A5
:100E50004FF0007393FAA3F3B3FA83F303F01F0385
:100E600022FA03F313F0010FE7D1002028E001205C
:100E700026E0032024E0032022E0012020E00320DC
:100E80001EE003201CE003201AE0032018E00320EA
:100E900016E0032014E0032012E0012010E00120FE
:100EA0000EE003200CE003200AE0032008E000200D
:100EB00006E0012004E0032002E0032000E003201C
:100EC00003B030BD00100240542C000810B489B0AB
:100ED0003A4B05AC186859689A6807C401AC53F8D6
:100EE0000C0F59689A68DB680FC4354B5B6803F0D8
:100EF0000C02082A5ED103F470114FF4701292FABA
:100F0000A2F2B2FA82F221FA02F208A90A4412F815
:100F10000C1C13F4803F49D0294CE36A03F00F0204
:100F20000F2393FAA3F3B3FA83F322FA03F308AA85
:100F3000134413F81C0CE36A13F4803F20D0E36AD7
:100F400003F0F002F02393FAA3F3B3FA83F322FA47
:100F500003F30133E46A04F470624FF4706494FAAA
:100F6000A4F4B4FA84F422FA04F40234154AB2FB6D
:100F7000F3F303FB04F3B3FBF0F000FB01F004E038
:100F8000104BB3FBF0F000FB01F04FF4701393FA39
:100F9000A3F3B3FA83F24FF45013D34008AA1344D7
:100FA00013F80C3C994206D1400804E0064800FBC7
:100FB00001F000E0034809B010BC7047382C00086D
:100FC0000010024000127A0000093D0070B50D4685
:100FD000044620B94FF42F71A04800F085F923682A
:100FE00013F00F0F04D140F2BD219C4800F07CF9B2
:100FF000022D04D940F2BE21984800F075F9984BB3
:101000001B6803F007039D420BD9954A136823F030
:1010100007032B431360136803F007039D4240F05E
:101020000D81236813F0020F1DD0A368A3B1802B9C
:1010300012D0902B10D0A02B0ED0B02B0CD0C02BE8
:101040000AD0D02B08D0E02B06D0F02B04D040F2F1
:10105000D721824800F048F982494B6823F0F0021A
:10106000A36813434B60236813F0010F00F08180E5
:101070006368022B04D940F2DE21784800F034F98D
:101080006268012A13D14FF4003393FAA3F3754B2E
:1010900019684FF4003393FAA3F3B3FA83F303F020
:1010A0001F0321FA03F313F0010F28D1C8E0022A2D
:1010B00013D14FF0007393FAA3F36A4B19684FF002
:1010C000007393FAA3F3B3FA83F303F01F0321FA37
:1010D00003F313F0010F12D1B4E0022393FAA3F348
:1010E000604B1968022393FAA3F3B3FA83F303F076
:1010F0001F0321FA03F313F0010F00F0A5805949F3
:101100004B6823F0030313434B60FFF7BDF906461A
:101110006368012B0FD107E0FFF7B6F9801B41F29E
:101120008833984200F292804E4B5B6803F00C03C8
:10113000042BF1D11DE0022B16D107E0FFF7A4F933
:10114000801B41F28833984200F28280454B5B68F5
:1011500003F00C03082BF1D10BE0FFF795F9801B8E
:1011600041F28833984275D83E4B5B6813F00C0F00
:10117000F3D13B4B1B6803F007039D420AD2384A68
:10118000136823F007032B431360136803F007036E
:101190009D4261D1236813F0040F19D0E36883B135
:1011A000B3F5806F0DD0B3F5A06F0AD0B3F5C06F63
:1011B00007D0B3F5E06F04D040F23231274800F099
:1011C00093F828494B6823F4E062E36813434B60CB
:1011D000236813F0080F1AD0236983B1B3F5806F29
:1011E0000DD0B3F5A06F0AD0B3F5C06F07D0B3F53B
:1011F000E06F04D040F23931184800F075F8194A10
:10120000536823F46053216943EAC1035360FFF735
:101210005DFE144B5B6803F0F002F02393FAA3F336
:10122000B3FA83F322FA03F30F4AD35CD8400F4B8F
:1012300018600020FFF70CF9002070BD012070BD80
:10124000012070BD012070BD012070BD032070BD64
:10125000032070BD032070BD012070BD542C000818
:101260000020024000100240742E00080C000020F4
:10127000014B1868704700BF0C000020FEE700BF5C
:1012800008B5034800F052F80120FFF7F7FF00BF50
:10129000802C000808B50D4B1B6813B90C4A0B4B8A
:1012A0001A600A4B1A68C31C23F00303134409494C
:1012B0008B4206D901F018F80C2303604FF0FF3081
:1012C00008BD02490B60104608BD00BF4C0100205C
:1012D000941B002000FC002001230360014B0B60E5
:1012E000704700BF0400002008B50A4601460248C6
:1012F00000F004F8FFF7C4FFD42C00080FB400B5C9
:1013000083B004AB53F8042B01938021064801F00D
:1013100077F8002803DD0146034800F049F803B0E0
:101320005DF804EB04B070475401002010B504468A
:1013300001F004F80146204600F03AF80121024885
:1013400000F036F810BD00BFC42D00082DE9F043B1
:1013500085B004460F46435C13BB0425284621464E
:10136000ABBE04461FE03546102E28BF10250023D3
:1013700006E014F8011B04AA1A4402F8101C0133F9
:10138000AB42F6D304AA1344002203F8102CE9461A
:101390004FF0040840464946ABBE8046761B00E04D
:1013A0000E46002EDFD1384605B0BDE8F08300BF01
:1013B00008B5FFF7CBFF08BD08B500F097F8024B62
:1013C000024A9A6008BD00BF00ED00E0000000087E
:1013D00008B500F0B7F808BDF8B504460D46174645
:1013E0001E462648FFF78AFF21682548FFF786FF3B
:1013F00061682448FFF782FFA1682348FFF77EFF5A
:10140000E1682248FFF77AFF21692148FFF776FF5C
:1014100061692048FFF772FFA1691F48FFF76EFF5F
:10142000E1691E48FFF76AFF1D48FFF767FF29467D
:101430001C48FFF763FF1C4CE16A1C48FFF75EFF86
:10144000216B1B48FFF75AFFE16B1A48FFF756FF65
:1014500015F0800F03D039461748FFF74FFF15F4FA
:10146000004F03D031461548FFF748FF1448FFF7F7
:1014700045FF06991348FFF741FFF8BD2C2D0008E2
:101480003C2D00084C2D00085C2D00086C2D000838
:101490007C2D00088C2D00089C2D0008AC2D000828
:1014A000BC2D0008C82D000800ED00E0D82D000874
:1014B000E82D0008F82D0008082E0008182E000856
:1014C000282E0008302E000883691A888A4207D126
:1014D0000268033A012A05D802338361012070476C
:1014E0000020704700207047FEE70000124B1A688A
:1014F00042F001021A605968104A0A405A601A689C
:1015000022F0847222F480321A601A6822F4802257
:101510001A605A6822F4FE025A601A6822F0A05239
:101520001A604FF47F029A600022DA624FF0006284
:10153000034B9A60704700BF001002400000FFF0AC
:1015400000ED00E010B42D4B5B6803F00C03042B9E
:1015500007D0082B09D0002B40D1294A294B1A600B
:101560003FE0274A274B1A603BE0244A5368526801
:1015700002F48032C3F383430D2B01D0023300E029
:1015800006232AB9204A02FB03F31E4A136028E00F
:101590001A4AD16AD26A02F00F02013211F4803F76
:1015A00007D11749B1FBF2F202FB03F3154A1360AE
:1015B00017E01248C16AC1F303110131C46AC4F3D0
:1015C000032402340E48B0FBF1F101FB04F1B1FB3E
:1015D000F2F202FB03F30B4A136002E0084A094BE4
:1015E0001A60064B5B68C3F30313084AD15C054AD3
:1015F0001368CB40136010BC704700BF001002405E
:1016000000127A000C00002000093D00742E000832
:1016100082B04FF48053019308E04369826943EA42
:10162000024323F07F4331EA030306D0019B5A1E95
:101630000192002BF1D1002000E0012002B07047A0
:1016400010B4002901DA143000E0183089B24FF4E8
:10165000805303E004881346214204D15A1E002B14
:10166000F8D1002000E0012010BC704710B4002920
:1016700001DA143000E0183089B24FF4805303E0EF
:1016800004881346214204D05A1E002BF8D10020B2
:1016900000E0012010BC704708B54368436843F080
:1016A00018034360036823F001030360144B99425D
:1016B0000AD84900134BB3FBF1F189B2042938BFB2
:1016C0000421192303620BE001EB41010D4BB3FB35
:1016D000F1F189B201B9012141F40041082303620B
:1016E000C16140F2014303604FF4804383600221F3
:1016F000FFF7BCFF034600B10123184608BD00BF39
:10170000A086010000366E01F8B504460E46154667
:101710001F46036843F480630360036823F4006397
:101720000360036843F4807303604049FFF770FF70
:101730000346002878D047F0010727613C4920463E
:10174000FFF77EFF034600286ED0012D17D12368D6
:1017500023F480631B041B0C236072B66369A369C6
:10176000236843F40073236062B632492046FFF7D2
:1017700067FF0346002857D0236933704DE0022DE0
:101780001ED1236843F40063236072B6A369236803
:1017900023F480631B041B0C236062B62649204699
:1017A000FFF74EFF034600283ED072B6236843F48D
:1017B000007323602369337062B6236973702CE071
:1017C000A36909E01C492046FFF73AFF034658B3D6
:1017D000236933703D4601366F1E032DF2D1164941
:1017E0002046FFF72DFF0346F0B1236823F4806302
:1017F0001B041B0C236072B623693370236843F407
:101800000073236062B6236973700C492046FFF7AA
:10181000FFFE034640B12369B37009492046FFF734
:1018200025FF034600B101231846F8BD010003005F
:10183000020000804000008004000080400003009F
:101840001000008070B582B004460E46154623682D
:1018500043F48073236021492046FFF7F1FE0346DD
:10186000002838D026F0010323614FF48053019300
:10187000626940F202431A4204D1019B013B019389
:10188000002BF5D112F0020F12D0236843F400733D
:1018900023606369A36912492046FFF7E7FE034608
:1018A000C8B102212046FFF7E1FE034690B912E0DD
:1018B000236843F400732360636923F480636361E6
:1018C00002212046FFF7D2FE034620B1013DBED1E2
:1018D000002300E00123184602B070BD0100008023
:1018E00010000080684620F007018D4611B40122E7
:1018F000164B1A601BE0164B1A6822F020021A6081
:101900005968CAB213480378134CE2540133DBB26E
:101910000370013B1148C45C2144C15452B20A2AED
:1019200005D100220B4B1A7001220D4B1A70084B87
:101930001B6813F0200F03D0094B1B78002BDAD063
:101940000022024B1A6011BC85467047900122426A
:1019500000380140ED010020540F0020D801002084
:10196000EC01002070B594B00226069601250B9577
:1019700010230C93002407940E960F944FF48013B9
:101980001093119406A8FEF70DFE0F230193029603
:10199000039404940594214601A8FFF717FBFFF771
:1019A00067FC0E4BA3FB00308009FEF7C3FD04204B
:1019B000FEF7D6FD4FF0805393FAA3F3B3FA83F307
:1019C000B34003F1844303F584031D60224621469E
:1019D0004FF0FF30FEF76CFD14B070BDD34D6210B8
:1019E00010B491FAA1F1B1FA81F1890004461C29E1
:1019F00002D9203989B2041D20680F238B4020EAC8
:101A0000030302FA01F11943216010BC704700BFC3
:101A1000034B1B6813F0800FFAD0014B58607047DE
:101A20000038014030B585B00022541C0E4BA3FB9A
:101A30000013DB08194603EB83035D00431B04A876
:101A40000244303302F80C3C084622460029ECD10F
:101A500006E0013C04AB234413F80C0CFFF7D8FF5D
:101A6000002CF6D105B030BDCDCCCCCC10B50446A1
:101A700002E0FFF7CDFF013420780028F9D110BD36
:101A800070B588B0734B0793002403E0724A42F8A4
:101A90002430013408AA52F8040D704900F081FC8A
:101AA00003460028F2D1012C40F0CD816A4B1B681F
:101AB00093F90030423B182B00F2C581DFE813F0A8
:101AC00020002800C301C301C301C3017701C30182
:101AD000C301C301C301BE00EE00C301C301C301C2
:101AE000C3012400C301C3011900C301C301C30121
:101AF000C5005B48FFF7BAFF5A48FFF7B7FFA2E1FE
:101B00000122594B1A709EE10022574B1A709AE13C
:101B1000564A936843F001039360002309E0544A56
:101B20001088544921F813005188534A22F81310A1
:101B30000133C62BF3DD514B1A6822F001021A6003
:101B400064225A601A6842F001021A6001224FF0C2
:101B500080431A60C8230DE040F2DB52934208DC58
:101B6000434A1088434921F813005188424A22F819
:101B70001310013340F2DA529342EDDD4FF0804210
:101B8000136823F00103136002F59232936843F067
:101B9000010393603A48FFF769FF3A48FFF766FF91
:101BA000002418E043F2C823009302E0009B013BAD
:101BB0000093009B002BF9D13348FFF757FF3348C0
:101BC000FFF754FF2B4B33F81400FFF72BFF2D4882
:101BD000FFF74CFF013440F2DA539C42E2DD284823
:101BE000FFF744FF2748FFF741FF002418E043F2C6
:101BF000C823019302E0019B013B0193019B002B51
:101C0000F9D12348FFF732FF2048FFF72FFF1A4B87
:101C100033F81400FFF706FF1A48FFF727FF0134D7
:101C200040F2DA539C42E2DD1A48FFF71FFF1548E5
:101C3000FFF71CFF0B48FFF719FF04E14FF080424C
:101C4000136823F001031360FDE00022124B1A8099
:101C5000F9E000BF540F0020FC010020842E000892
:101C6000882E0008C42D0008D40100200024014063
:101C700090030020D00F0020980300203004024081
:101C80009C2E0008A42E0008A82E0008AC2E0008E8
:101C9000B02E0008B42E0008881B00206C48FFF707
:101CA000E5FE6C4C2046FFF7E1FE6B48FFF7DEFED9
:101CB0006A48FFF7DBFE6A4B1A886A4902A800F0FF
:101CC00019FB02A8FFF7D2FE2046FFF7CFFE664BB6
:101CD0001B889BB2202B04D8634B1B889BB25E2BC6
:101CE00028D86248FFF7C2FE5C4E3046FFF7BEFEC2
:101CF0005D4B1A885B4D92B2294602A800F0FAFAB1
:101D000002A8FFF7B3FE534C2046FFF7AFFE58483A
:101D1000FFF7ACFE3046FFF7A9FE564BB3F90020A3
:101D2000294602A800F0E6FA02A8FFF79FFE204627
:101D3000FFF79CFE504B1B889BB2202B04D84E4BC8
:101D40001B889BB25E2B28D84C48FFF78FFE434E72
:101D50003046FFF78BFE484B1A88424D92B2294617
:101D600002A800F0C7FA02A8FFF780FE394C20460F
:101D7000FFF77CFE4248FFF779FE3046FFF776FE1C
:101D8000404BB3F90020294602A800F0B3FA02A89C
:101D9000FFF76CFE2046FFF769FE3B48FFF766FE43
:101DA0002C48FFF763FE3948FFF760FE4BE02848F8
:101DB000FFF75CFE2748FFF759FE2F4B1B889BB2AD
:101DC000202B04D82C4B1B889BB25E2B32D82B487F
:101DD000FFF74CFE214E3046FFF748FE264B1A888F
:101DE000204D92B2294602A800F084FA02A8FFF71B
:101DF0003DFE184C2046FFF739FE2148FFF736FE1E
:101E00003046FFF733FE1F4BB3F90020294602A8E6
:101E100000F070FA02A8FFF729FE2046FFF726FE21
:101E20001948FFF723FE2046FFF720FE1748FFF76B
:101E30001DFE08E01448FFF719FE0648FFF716FEDE
:101E40001248FFF713FE0022114B1A7008B070BD44
:101E50009C2E0008A42E0008BC2E0008AC2E000802
:101E6000C00F0020C02E0008C20F0020C42E0008A2
:101E7000C82E0008881B00208A1B0020CC2E0008DA
:101E8000D02E0008C60F0020B42E0008C42D000874
:101E90008E03002010B584B00122364B1A608023D7
:101EA000052202A93448FFF72FFCDDE9022303F0E5
:101EB000FF03CDE90223DDE90223D2B28DF807202A
:101EC000DDE90223C2F307328DF806209DF80630C3
:101ED00003F00F038DF805309DF807301B01274AEA
:101EE00013809DF805100B431380DDE90201020EFB
:101EF00042EA012292B222490A800A88D2B20A80BA
:101F00000A8892B21F2A2FD90A8892B25F2A2BD848
:101F10001C4A1288934227D0A2F1330189B240F6BD
:101F20009E70814204D8184CD11A20880144218027
:101F300040F6D1718A4208D9322B06D8124C991A30
:101F40002088014401F6FF712180322A0AD840F628
:101F5000D1718B4206D90C489A1A01880A44A2F61C
:101F6000FF720280074A13800022024B1A6004B0FD
:101F700010BD00BF94012242005800408E1B00207B
:101F8000C20F002094030020881B002010B584B0ED
:101F90008223052202A93248FFF7B6FBDDE90223BE
:101FA00003F0FF03CDE90223DDE90223D2B28DF86D
:101FB0000720DDE90223C2F307328DF806209DF8E1
:101FC000063003F00F038DF805309DF807301B0134
:101FD000244A13809DF805100B431380DDE90201AC
:101FE000020E42EA012292B21F490A800A88D2B246
:101FF0000A800A8892B21F2A2FD90A8892B25F2AD1
:102000002BD81A4A1288934227D0A2F1330189B201
:1020100040F69E70814204D8154CD11A20880144A4
:10202000218040F6D1718A4208D9322B06D8104C53
:10203000991A2088014401F6FF712180322A0AD8BA
:1020400040F6D1718B4206D909489A1A01880A4490
:10205000A2F6FF720280054A138004B010BD00BFD3
:1020600000580040C80F00208A1B00208C1B002055
:10207000C60F002070B582B0FFF774FC744B44F6B5
:102080001C229A61D969734A0A43DA615A6942F09B
:1020900003025A61704B714A5A60F021704A82F80B
:1020A000231000259D6007221A606E4C0A224FF40F
:1020B00000712046FFF794FC04224FF48061204613
:1020C000FFF78EFC684E022210213046FFF788FC95
:1020D000022220213046FFF783FC644BD0229A6015
:1020E00042F22C02DA602026614B5E602A46012112
:1020F0002046FFF775FC2A4610212046FFF770FCAA
:1021000004F580640E2240212046FFF769FC0E2270
:1021100080212046FFF764FC0E224FF480612046A8
:10212000FFF75EFC0E224FF400612046FFF758FCDB
:10213000504B40225A6040F2E7329A6240F69F725A
:10214000DA62C8225A6301221A604FF080430321E9
:102150009962DA625E6003F501333033464ADA6031
:10216000464A9A6064225A6040F291521A6041F2E3
:102170002702434B1A6003F5C6330833414A9A607D
:10218000414ADA6002225A6040F2A1621A6040F2CB
:1021900001123E4B9A603E4B019302E0019B013BD2
:1021A0000193019B002BF9D101223A4B1A60394B64
:1021B0001B68002BFBD10122374B1A60364B1B6882
:1021C000002BFBD1314B9A6842F002029A605A68A8
:1021D00042F480725A604FF4E0725A634FF48011F7
:1021E000D9621A612A4C21462C48FFF755FA21463C
:1021F0002B48FFF751FA012804D1322282212848C6
:10220000FFF720FB274B1B788BB9274A1388013334
:102210009BB21380322B01D1FFF73CFE224B1B886F
:10222000642B04D1FFF7B2FE00221F4B1A801F4B14
:102230001B78012BE6D11E4C2360FFF721FC1D4AC1
:102240001D4B1A750023194A13702360DAE700BF8B
:10225000001002400100602010E000E0FF340C009C
:1022600000ED00E00008014000100140003801408E
:1022700000E100E0002C0140100000200874004044
:10228000007400404C2401409003002000240140D1
:10229000A08601000C8124420881244200540040A1
:1022A00000580040D4010020520F0020EC01002013
:1022B00090012242282D0008D8010020704700BF5D
:1022C000FEE700BFFEE700BFFEE700BFFEE700BF7E
:1022D000704700BF704700BF704700BF08B5FEF7EA
:1022E000CBF8FEF75BF908BD014B1868704700BFDB
:1022F0003C0100200EB400B54FF402719CB0ADF863
:1023000014106FF00041049107914FF6FF711DAB5F
:1023100002900690084853F8042BADF81610006898
:1023200002A9019300F0D4F8029B00221A701CB09D
:102330005DF804EB03B070473C010020034613F83E
:10234000012B002AFBD1181A01387047F0B548B9A3
:10235000106838B9F0BD17F8016B5EB1B542FAD11B
:102360002BB1204604460F4614F8015BF3E71460D6
:102370000370F0BD4DB915602846F0BD17F8016B2C
:10238000B54207D0002EF9D11C4623460F4613F85C
:10239000015BF3E715B10021217000E02B461360CB
:1023A000F0BD0123FFF7D2BF30B5141E05469BB028
:1023B000184604DA8B232B604FF0FF301DE04FF4FA
:1023C0000273ADF80C300CBF234604F1FF330293C7
:1023D00005934FF6FF7300910491ADF80E3002465D
:1023E0001E9B6946284600F073F8431CBCBF8B2334
:1023F0002B6014B1009B00221A701BB030BD00008E
:1024000007B5009313460A46014603480068FFF7E4
:10241000CBFF03B05DF804FB3C0100202DE9F04741
:102420008E6882469E420C46914698463ED88A89DE
:1024300012F4906F3AD02568096902236F1A656912
:1024400005EB450595FBF3F57B1C43449D4238BFE6
:102450001D4653050FD5294600F042FB064698B1AC
:102460003A46216900F0D2FAA38923F4906343F03D
:102470008003A38113E02A4600F086FB064670B96C
:102480002169504600F0E8FA0C23CAF80030A3890D
:102490004FF0FF3043F04003A381BDE8F087266191
:1024A0003E44266046466561ED1BA560464528BF53
:1024B000464649463246206800F0B3FAA368002039
:1024C0009B1BA36023681E442660BDE8F0870000C4
:1024D0002DE9F04F9DB003938B8980461C060D4675
:1024E00016460DD50B695BB9402100F0F9FA28605A
:1024F000286118B90C23C8F80030CDE040236B6187
:102500000023099320238DF82930DFF89CB1302374
:102510008DF82A3037463C4614F8013B1BB9B7EB1F
:10252000060910D003E0252BF9D02746F3E74B46E8
:10253000324629464046FFF771FF013000F0A78080
:10254000099B4B4409933B78002B00F0A0800023AB
:102550004FF0FF3204930793059206938DF85330A2
:102560001A930126052221784E4800F041FA671C93
:10257000049B38B14B4A3C46801A06FA00F01843D7
:102580000490EFE7D90644BF20228DF853201A07A4
:1025900044BF2B228DF8532022782A2A03D0079A91
:1025A00000210A200BE0039A111D12680391002AF2
:1025B00010DA524243F00200079204900BE02746E3
:1025C0003B780134303B092B03D800FB0232012158
:1025D000F5E701B107923B782E2B1ED17B782A2B91
:1025E0000AD1039B02371A1D1B680392002BB8BF48
:1025F0004FF0FF33059310E0002319460593781C34
:102600000A2407463A780130303A092A03D804FBF5
:1026100001210123F5E703B105910322397822480E
:1026200000F0E6F940B14023CBEB000003FA00F0E4
:10263000049B013718430490397806221B487E1CFE
:102640008DF8281000F0D4F988B1194B33B9039BE9
:10265000073323F007030833039314E003AB00931D
:102660002A46144B04A94046AFF3008007E003ABB1
:1026700000932A460F4B04A9404600F093F8B0F1AE
:10268000FF3F824603D0099B5344099342E7AB893D
:102690005B0601D4099801E04FF0FF301DB0BDE8A2
:1026A000F08F00BFD62E0008DC2E0008E02E0008B8
:1026B000000000001D2400082DE9F04791461F4648
:1026C0000A698B6806469342B8BF1346C9F80030C2
:1026D00091F843200C46DDF8208012B10133C9F88F
:1026E00000302368990642BFD9F800300233C9F898
:1026F0000030256815F0060510D104F1190A07E02D
:102700000123524639463046C04701301AD00135C0
:10271000E368D9F800209B1A9D42F1DB94F843301E
:102720002268003318BF012392060FD5E11830202C
:1027300081F843005A1C94F845102244023382F871
:10274000431003E04FF0FF30BDE8F08704F143028F
:1027500039463046C0470130F4D02268D9F80050DD
:10276000E36802F00602042A08BF5D1B2269A36821
:102770000CBF25EAE57500259342C4BF9B1AED18EE
:102780004FF000091A344D4509D00123224639463D
:102790003046C0470130D5D009F10109F3E70020E8
:1027A000BDE8F0872DE9F04317460A7E85B06E2A12
:1027B000984606460C460C9B01F1430E00F0AE8095
:1027C00011D8632A22D009D8002A00F0BB80582AE9
:1027D00040F0CA8081F84520834955E0642A1ED024
:1027E000692A1CD0C0E0732A00F0B08009D86F2A93
:1027F0002ED0702A40F0B8800A6842F020020A60A9
:102800003EE0752A24D0782A3AD0ADE01A6801F16A
:102810004205111D1960136884F84230A8E0216850
:102820001A6811F0800F02D0111D196008E011F034
:10283000400F02F10401196002D0B2F9003000E04B
:102840001368002B3CDA2D225B4284F8432037E0EA
:1028500021681A6811F0800F02D0111D196007E07D
:1028600011F0400F02F10401196001D0138800E05B
:102870001368227E5C496F2A14BF0A2208221BE0DB
:1028800078225A4984F845202268186812F0800F8F
:1028900000F104051D6003D1550601D5038800E051
:1028A0000368D00744BF42F0200222601BB92268AF
:1028B00022F0200222601022002084F8430001E070
:1028C00049490A226568002DA56008DB206820F0D0
:1028D000040020602BB9002D7DD175460CE0002B43
:1028E00079D07546B3FBF2F002FB1033CB5C05F8F0
:1028F000013D03460028F5D1082A0BD12368DA07E9
:1029000008D5236962689A42DEBF302305F8013C8E
:1029100005F1FF35C5EB0E0323612EE008681A6848
:1029200010F0800F496903D0101D1860136808E08B
:1029300010F0400F02F104001860136801D01980F4
:1029400000E0196000232361754616E01A68111D26
:102950001960156800216268284600F049F808B13E
:10296000401B6060636804E004F1420584F8422083
:1029700001232361002384F84330CDF800803B46D7
:1029800003AA21463046FFF797FE013002D14FF0EF
:10299000FF3026E023692A4639463046C0470130D9
:1029A000F5D023689B0710D5002504F1190907E02D
:1029B00001234A4639463046C0470130E7D0013549
:1029C000E368039A9B1A9D42F2DBE068039B9842FE
:1029D000B8BF184605E00B7804F1420584F8423090
:1029E0008AE705B0BDE8F083E72E0008F82E00085E
:1029F00010B5C9B202449042034605D01C7801309C
:102A00008C42F8D1184610BD002010BD10B5431EF1
:102A10000A44914204D011F8014B03F8014FF8E742
:102A200010BD884210B501EB020301D8421E0BE035
:102A30009842FBD28118D21AD34204D013F8014D28
:102A400001F8014DF8E710BD994204D011F8014B8F
:102A500002F8014FF8E710BD30B500293CD051F81D
:102A6000042C0B1F1D49002AB8BF9B180A680C468E
:102A700012B95A600B6030BD9A420DD919685818C6
:102A8000824201BF10685268091819605A602360B9
:102A900030BD994203D80A4651680029F9D114681B
:102AA00015199D420AD11B682344D0188142136036
:102AB00012D10868034413604B680CE002D90C2360
:102AC000036030BD18681C18A14201BF0C6849683A
:102AD000001918605960536030BD00BFF401002038
:102AE00070B5CD1C25F0030508350C2D38BF0C251D
:102AF000002D064603DA0C233360002070BDA94286
:102B0000F9D81F4B1C681A462146A1B10B685B1B04
:102B10000ED40B2B03D90B60CC18CD501EE08C4289
:102B20000BBF63684B681360636018BF0C4615E009
:102B30000C464968E9E7134C23681BB9304600F09E
:102B400049F820602946304600F044F8431CD2D0B2
:102B5000C41C24F00304A0420AD1256004F10B0038
:102B6000231D20F00700C31A09D05A42E25070BD5D
:102B7000211A304600F02EF80130EED1BBE770BDCF
:102B8000F4010020F0010020F8B5074615460E4676
:102B900021B91146BDE8F840FFF7A2BF1AB9FFF707
:102BA0005BFF2846F8BD00F025F885420ED929467E
:102BB0003846FFF795FF044650B131462A46FFF7E5
:102BC00025FF31463846FFF747FF01E03046F8BDA4
:102BD0002046F8BD38B5064C00230546084623605C
:102BE000FEF758FB431C02D1236803B12B6038BDAC
:102BF000F801002051F8040C0028BEBF091851F854
:102C0000043CC018043870472E2E2F7379737465F6
:102C10006D2F7372632F73746D3332663178782F32
:102C200073746D3332663178785F68616C5F636F9F
:102C3000727465782E630000000004050607080919
:102C40000000000D0102030405060708090A0B0C29
:102C50000D0E0F102E2E2F73797374656D2F7372F6
:102C6000632F73746D3332663178782F73746D33DC
:102C700032663178785F68616C5F7263632E6300DF
:102C800061626F727428292C2065786974696E6797
:102C90002E2E2E002C2066756E6374696F6E3A209E
:102CA00000000000617373657274696F6E202225E5
:102CB0007322206661696C65643A2066696C6520E0
:102CC000222573222C206C696E65202564257325CE
:102CD000730A00006173736572745F706172616D75
:102CE0002829206661696C65643A2066696C6520F4
:102CF000222573222C206C696E652025640A000051
:102D00006D61696E28617267633D25642C20617274
:102D100067763D5B000000002C2000002225732216
:102D2000000000005D293B0A00000000537461634D
:102D30006B206672616D653A0A00000020523020F7
:102D40003D2020253038580A000000002052312054
:102D50003D2020253038580A000000002052322043
:102D60003D2020253038580A000000002052332032
:102D70003D2020253038580A000000002052313212
:102D8000203D20253038580A00000000204C5220F9
:102D90003D2020253038580A0000000020504320F4
:102DA0003D2020253038580A0000000020505352A2
:102DB000203D20253038580A000000004653522F8D
:102DC0004641523A0A0000002043465352203D201B
:102DD00020253038580A00002048465352203D2014
:102DE00020253038580A00002044465352203D2008
:102DF00020253038580A00002041465352203D20FB
:102E000020253038580A0000204D4D464152203DC3
:102E100020253038580A00002042464152203D20EB
:102E200020253038580A00004D6973630A000000FD
:102E3000204C522F4558435F52455455524E3D2029
:102E4000253038580A0000005B486172644661759D
:102E50006C745D0A000000005B4275734661756C1E
:102E6000745D0A005B55736167654661756C745DDE
:102E70000A0000000000000000000000010203043E
:102E8000060708093B0000004D572D574952454C95
:102E9000455353204C4F474745520000535441522D
:102EA00054000000230000004348310024000000CB
:102EB0004348320053544F50000000004348330051
:102EC0002564000043483400434835004348360039
:102ED000434837004300232D302B2000686C4C0002
:102EE000656667454647003031323334353637380A
:102EF0003941424344454600303132333435363768
:092F000038396162636465660002
:102F0C0078563412500100200000000000A24A0440
:102F1C000008800800097F09FD09780AF10A670B8F
:102F2C00DA0B490CB30C190D790DD40D290E780E52
:102F3C00C00E020F3C0F6F0F9B0FBF0FDB0FEF0F7D
:102F4C00FB0FFF0FFB0FEF0FDB0FBF0F9B0F6F0F75
:102F5C003C0F020FC00E780E290ED40D790D190DF1
:102F6C00B30C490CDA0B670BF10A780AFD097F09DF
:102F7C000009800800087F07FF0680060206870507
:102F8C000E0598042504B6034C03E60286022B02B8
:102F9C00D60187013F01FD00C30090006400400092
:102FAC002400100004000000040010002400400065
:102FBC0064009000C300FD003F018701D6012B0285
:102FCC008602E6024C03B603250498040E05870519
:102FDC0002068006FF067F070008FFFF00000000C6
:102FEC0000000000000000000000000000000000D5
:102FFC00000000000000000000000000D42E0008BB
:10300C0000000000000000000000000000000000B4
:10301C0000000000000000000000000000000000A4
:10302C000000000000000000000000000000000094
:10303C00000000000000000000000000DC00002088
:04304C0032547698EC
:04000005080001E509
:00000001FF
